{
  "_format": "hh-sol-artifact-1",
  "contractName": "ChallengePool",
  "sourceName": "contracts/ChallengePool.sol",
  "abi": [
    {
      "inputs": [
        {
          "internalType": "address",
          "name": "_usdcToken",
          "type": "address"
        }
      ],
      "stateMutability": "nonpayable",
      "type": "constructor"
    },
    {
      "inputs": [
        {
          "internalType": "address",
          "name": "owner",
          "type": "address"
        }
      ],
      "name": "OwnableInvalidOwner",
      "type": "error"
    },
    {
      "inputs": [
        {
          "internalType": "address",
          "name": "account",
          "type": "address"
        }
      ],
      "name": "OwnableUnauthorizedAccount",
      "type": "error"
    },
    {
      "anonymous": false,
      "inputs": [
        {
          "indexed": true,
          "internalType": "uint256",
          "name": "challengeId",
          "type": "uint256"
        },
        {
          "indexed": true,
          "internalType": "address",
          "name": "creator",
          "type": "address"
        },
        {
          "indexed": false,
          "internalType": "uint256",
          "name": "refund",
          "type": "uint256"
        }
      ],
      "name": "ChallengeCancelled",
      "type": "event"
    },
    {
      "anonymous": false,
      "inputs": [
        {
          "indexed": true,
          "internalType": "uint256",
          "name": "challengeId",
          "type": "uint256"
        },
        {
          "indexed": true,
          "internalType": "address",
          "name": "creator",
          "type": "address"
        },
        {
          "indexed": false,
          "internalType": "uint256",
          "name": "prizePool",
          "type": "uint256"
        },
        {
          "indexed": false,
          "internalType": "uint256",
          "name": "platformFee",
          "type": "uint256"
        },
        {
          "indexed": false,
          "internalType": "uint64",
          "name": "endsAt",
          "type": "uint64"
        },
        {
          "indexed": false,
          "internalType": "uint64",
          "name": "claimDeadline",
          "type": "uint64"
        }
      ],
      "name": "ChallengeCreated",
      "type": "event"
    },
    {
      "anonymous": false,
      "inputs": [
        {
          "indexed": true,
          "internalType": "uint256",
          "name": "challengeId",
          "type": "uint256"
        },
        {
          "indexed": true,
          "internalType": "address",
          "name": "creator",
          "type": "address"
        },
        {
          "indexed": false,
          "internalType": "uint256",
          "name": "amount",
          "type": "uint256"
        }
      ],
      "name": "ChallengeReclaimed",
      "type": "event"
    },
    {
      "anonymous": false,
      "inputs": [
        {
          "indexed": true,
          "internalType": "uint256",
          "name": "challengeId",
          "type": "uint256"
        },
        {
          "indexed": false,
          "internalType": "bytes32",
          "name": "merkleRoot",
          "type": "bytes32"
        }
      ],
      "name": "MerkleRootSet",
      "type": "event"
    },
    {
      "anonymous": false,
      "inputs": [
        {
          "indexed": true,
          "internalType": "address",
          "name": "previousOwner",
          "type": "address"
        },
        {
          "indexed": true,
          "internalType": "address",
          "name": "newOwner",
          "type": "address"
        }
      ],
      "name": "OwnershipTransferred",
      "type": "event"
    },
    {
      "anonymous": false,
      "inputs": [
        {
          "indexed": true,
          "internalType": "uint256",
          "name": "challengeId",
          "type": "uint256"
        },
        {
          "indexed": true,
          "internalType": "address",
          "name": "user",
          "type": "address"
        },
        {
          "indexed": false,
          "internalType": "uint256",
          "name": "amount",
          "type": "uint256"
        }
      ],
      "name": "RewardClaimed",
      "type": "event"
    },
    {
      "inputs": [],
      "name": "PLATFORM_FEE_BPS",
      "outputs": [
        {
          "internalType": "uint256",
          "name": "",
          "type": "uint256"
        }
      ],
      "stateMutability": "view",
      "type": "function"
    },
    {
      "inputs": [
        {
          "internalType": "uint256",
          "name": "challengeId",
          "type": "uint256"
        }
      ],
      "name": "cancelChallenge",
      "outputs": [],
      "stateMutability": "nonpayable",
      "type": "function"
    },
    {
      "inputs": [
        {
          "internalType": "uint256",
          "name": "",
          "type": "uint256"
        }
      ],
      "name": "challenges",
      "outputs": [
        {
          "internalType": "address",
          "name": "creator",
          "type": "address"
        },
        {
          "internalType": "uint256",
          "name": "prizePool",
          "type": "uint256"
        },
        {
          "internalType": "uint64",
          "name": "endsAt",
          "type": "uint64"
        },
        {
          "internalType": "uint64",
          "name": "claimDeadline",
          "type": "uint64"
        },
        {
          "internalType": "bytes32",
          "name": "merkleRoot",
          "type": "bytes32"
        },
        {
          "internalType": "bool",
          "name": "cancelled",
          "type": "bool"
        }
      ],
      "stateMutability": "view",
      "type": "function"
    },
    {
      "inputs": [
        {
          "internalType": "uint256",
          "name": "challengeId",
          "type": "uint256"
        },
        {
          "internalType": "uint256",
          "name": "amount",
          "type": "uint256"
        },
        {
          "internalType": "bytes32[]",
          "name": "proof",
          "type": "bytes32[]"
        }
      ],
      "name": "claimReward",
      "outputs": [],
      "stateMutability": "nonpayable",
      "type": "function"
    },
    {
      "inputs": [
        {
          "internalType": "uint256",
          "name": "prizePool",
          "type": "uint256"
        },
        {
          "internalType": "uint64",
          "name": "endsAt",
          "type": "uint64"
        },
        {
          "internalType": "uint64",
          "name": "claimDeadline",
          "type": "uint64"
        }
      ],
      "name": "createChallenge",
      "outputs": [
        {
          "internalType": "uint256",
          "name": "",
          "type": "uint256"
        }
      ],
      "stateMutability": "nonpayable",
      "type": "function"
    },
    {
      "inputs": [
        {
          "internalType": "uint256",
          "name": "",
          "type": "uint256"
        },
        {
          "internalType": "address",
          "name": "",
          "type": "address"
        }
      ],
      "name": "hasClaimed",
      "outputs": [
        {
          "internalType": "bool",
          "name": "",
          "type": "bool"
        }
      ],
      "stateMutability": "view",
      "type": "function"
    },
    {
      "inputs": [],
      "name": "nextChallengeId",
      "outputs": [
        {
          "internalType": "uint256",
          "name": "",
          "type": "uint256"
        }
      ],
      "stateMutability": "view",
      "type": "function"
    },
    {
      "inputs": [],
      "name": "owner",
      "outputs": [
        {
          "internalType": "address",
          "name": "",
          "type": "address"
        }
      ],
      "stateMutability": "view",
      "type": "function"
    },
    {
      "inputs": [
        {
          "internalType": "uint256",
          "name": "challengeId",
          "type": "uint256"
        }
      ],
      "name": "reclaimUnclaimed",
      "outputs": [],
      "stateMutability": "nonpayable",
      "type": "function"
    },
    {
      "inputs": [],
      "name": "renounceOwnership",
      "outputs": [],
      "stateMutability": "nonpayable",
      "type": "function"
    },
    {
      "inputs": [
        {
          "internalType": "uint256",
          "name": "challengeId",
          "type": "uint256"
        },
        {
          "internalType": "bytes32",
          "name": "merkleRoot",
          "type": "bytes32"
        }
      ],
      "name": "setMerkleRoot",
      "outputs": [],
      "stateMutability": "nonpayable",
      "type": "function"
    },
    {
      "inputs": [
        {
          "internalType": "uint256",
          "name": "",
          "type": "uint256"
        }
      ],
      "name": "totalClaimed",
      "outputs": [
        {
          "internalType": "uint256",
          "name": "",
          "type": "uint256"
        }
      ],
      "stateMutability": "view",
      "type": "function"
    },
    {
      "inputs": [
        {
          "internalType": "address",
          "name": "newOwner",
          "type": "address"
        }
      ],
      "name": "transferOwnership",
      "outputs": [],
      "stateMutability": "nonpayable",
      "type": "function"
    },
    {
      "inputs": [],
      "name": "usdcToken",
      "outputs": [
        {
          "internalType": "contract IERC20",
          "name": "",
          "type": "address"
        }
      ],
      "stateMutability": "view",
      "type": "function"
    }
  ],
  "bytecode": "0x60a0604052600180553480156200001557600080fd5b5060405162002e9738038062002e9783398181016040528101906200003b91906200029e565b33600073ffffffffffffffffffffffffffffffffffffffff168173ffffffffffffffffffffffffffffffffffffffff1603620000b15760006040517f1e4fbdf7000000000000000000000000000000000000000000000000000000008152600401620000a89190620002e1565b60405180910390fd5b620000c2816200017060201b60201c565b50600073ffffffffffffffffffffffffffffffffffffffff168173ffffffffffffffffffffffffffffffffffffffff160362000135576040517f08c379a00000000000000000000000000000000000000000000000000000000081526004016200012c906200035f565b60405180910390fd5b8073ffffffffffffffffffffffffffffffffffffffff1660808173ffffffffffffffffffffffffffffffffffffffff16815250505062000381565b60008060009054906101000a900473ffffffffffffffffffffffffffffffffffffffff169050816000806101000a81548173ffffffffffffffffffffffffffffffffffffffff021916908373ffffffffffffffffffffffffffffffffffffffff1602179055508173ffffffffffffffffffffffffffffffffffffffff168173ffffffffffffffffffffffffffffffffffffffff167f8be0079c531659141344cd1fd0a4f28419497f9722a3daafe3b4186f6b6457e060405160405180910390a35050565b600080fd5b600073ffffffffffffffffffffffffffffffffffffffff82169050919050565b6000620002668262000239565b9050919050565b620002788162000259565b81146200028457600080fd5b50565b60008151905062000298816200026d565b92915050565b600060208284031215620002b757620002b662000234565b5b6000620002c78482850162000287565b91505092915050565b620002db8162000259565b82525050565b6000602082019050620002f86000830184620002d0565b92915050565b600082825260208201905092915050565b7f496e76616c696420555344432061646472657373000000000000000000000000600082015250565b600062000347601483620002fe565b915062000354826200030f565b602082019050919050565b600060208201905081810360008301526200037a8162000338565b9050919050565b608051612ad7620003c06000396000818161053c015281816106b501528181610e0f0152818161114a015281816113d801526114c00152612ad76000f3fe608060405234801561001057600080fd5b50600436106100ea5760003560e01c80638f1d37761161008c578063dbe783ca11610066578063dbe783ca14610228578063eaab2c3f14610258578063f2fde38b14610288578063fc67aa50146102a4576100ea565b80638f1d3776146101bb5780639821f5f2146101f0578063a41483e31461020c576100ea565b8063539aa77f116100c8578063539aa77f14610145578063715018a614610163578063873f6f9e1461016d5780638da5cb5b1461019d576100ea565b806303c1c727146100ef57806311eac8551461010b57806318712c2114610129575b600080fd5b61010960048036038101906101049190611a52565b6102c2565b005b6101136106b3565b6040516101209190611afe565b60405180910390f35b610143600480360381019061013e9190611b4f565b6106d7565b005b61014d61094d565b60405161015a9190611b9e565b60405180910390f35b61016b610953565b005b61018760048036038101906101829190611bf7565b610967565b6040516101949190611c52565b60405180910390f35b6101a5610996565b6040516101b29190611c7c565b60405180910390f35b6101d560048036038101906101d09190611a52565b6109bf565b6040516101e796959493929190611cc9565b60405180910390f35b61020a60048036038101906102059190611d8f565b610a50565b005b61022660048036038101906102219190611a52565b610f41565b005b610242600480360381019061023d9190611e2f565b6112c1565b60405161024f9190611b9e565b60405180910390f35b610272600480360381019061026d9190611a52565b61176c565b60405161027f9190611b9e565b60405180910390f35b6102a2600480360381019061029d9190611e82565b611784565b005b6102ac61180a565b6040516102b99190611b9e565b60405180910390f35b6000600260008381526020019081526020016000209050600073ffffffffffffffffffffffffffffffffffffffff168160000160009054906101000a900473ffffffffffffffffffffffffffffffffffffffff1673ffffffffffffffffffffffffffffffffffffffff160361036c576040517f08c379a000000000000000000000000000000000000000000000000000000000815260040161036390611f0c565b60405180910390fd5b8060000160009054906101000a900473ffffffffffffffffffffffffffffffffffffffff1673ffffffffffffffffffffffffffffffffffffffff163373ffffffffffffffffffffffffffffffffffffffff16146103fe576040517f08c379a00000000000000000000000000000000000000000000000000000000081526004016103f590611f78565b60405180910390fd5b8060040160009054906101000a900460ff1615610450576040517f08c379a000000000000000000000000000000000000000000000000000000000815260040161044790611fe4565b60405180910390fd5b8060020160089054906101000a900467ffffffffffffffff1667ffffffffffffffff1642116104b4576040517f08c379a00000000000000000000000000000000000000000000000000000000081526004016104ab90612050565b60405180910390fd5b6000600460008481526020019081526020016000205482600101546104d9919061209f565b90506000811161051e576040517f08c379a00000000000000000000000000000000000000000000000000000000081526004016105159061211f565b60405180910390fd5b600460008481526020019081526020016000205482600101819055507f000000000000000000000000000000000000000000000000000000000000000073ffffffffffffffffffffffffffffffffffffffff1663a9059cbb8360000160009054906101000a900473ffffffffffffffffffffffffffffffffffffffff16836040518363ffffffff1660e01b81526004016105b992919061213f565b6020604051808303816000875af11580156105d8573d6000803e3d6000fd5b505050506040513d601f19601f820116820180604052508101906105fc9190612194565b61063b576040517f08c379a00000000000000000000000000000000000000000000000000000000081526004016106329061220d565b60405180910390fd5b8160000160009054906101000a900473ffffffffffffffffffffffffffffffffffffffff1673ffffffffffffffffffffffffffffffffffffffff16837f928a00c86e7a0e6618b9567dd80a887d51701193945878e57030287138be5d47836040516106a69190611b9e565b60405180910390a3505050565b7f000000000000000000000000000000000000000000000000000000000000000081565b6000600260008481526020019081526020016000209050600073ffffffffffffffffffffffffffffffffffffffff168160000160009054906101000a900473ffffffffffffffffffffffffffffffffffffffff1673ffffffffffffffffffffffffffffffffffffffff1603610781576040517f08c379a000000000000000000000000000000000000000000000000000000000815260040161077890611f0c565b60405180910390fd5b8060000160009054906101000a900473ffffffffffffffffffffffffffffffffffffffff1673ffffffffffffffffffffffffffffffffffffffff163373ffffffffffffffffffffffffffffffffffffffff16148061081157506107e2610996565b73ffffffffffffffffffffffffffffffffffffffff163373ffffffffffffffffffffffffffffffffffffffff16145b610850576040517f08c379a000000000000000000000000000000000000000000000000000000000815260040161084790612279565b60405180910390fd5b8060040160009054906101000a900460ff16156108a2576040517f08c379a000000000000000000000000000000000000000000000000000000000815260040161089990611fe4565b60405180910390fd5b8060020160009054906101000a900467ffffffffffffffff1667ffffffffffffffff16421015610907576040517f08c379a00000000000000000000000000000000000000000000000000000000081526004016108fe906122e5565b60405180910390fd5b818160030181905550827fb04b7d6145a7588fdcf339a22877d5965f861c171204fc37688058c5f6c06d3b836040516109409190612305565b60405180910390a2505050565b6101f481565b61095b611810565b6109656000611897565b565b60036020528160005260406000206020528060005260406000206000915091509054906101000a900460ff1681565b60008060009054906101000a900473ffffffffffffffffffffffffffffffffffffffff16905090565b60026020528060005260406000206000915090508060000160009054906101000a900473ffffffffffffffffffffffffffffffffffffffff16908060010154908060020160009054906101000a900467ffffffffffffffff16908060020160089054906101000a900467ffffffffffffffff16908060030154908060040160009054906101000a900460ff16905086565b6000600260008681526020019081526020016000209050600073ffffffffffffffffffffffffffffffffffffffff168160000160009054906101000a900473ffffffffffffffffffffffffffffffffffffffff1673ffffffffffffffffffffffffffffffffffffffff1603610afa576040517f08c379a0000000000000000000000000000000000000000000000000000000008152600401610af190611f0c565b60405180910390fd5b8060040160009054906101000a900460ff1615610b4c576040517f08c379a0000000000000000000000000000000000000000000000000000000008152600401610b4390611fe4565b60405180910390fd5b6000801b816003015403610b95576040517f08c379a0000000000000000000000000000000000000000000000000000000008152600401610b8c9061236c565b60405180910390fd5b8060020160089054906101000a900467ffffffffffffffff1667ffffffffffffffff16421115610bfa576040517f08c379a0000000000000000000000000000000000000000000000000000000008152600401610bf1906123d8565b60405180910390fd5b6003600086815260200190815260200160002060003373ffffffffffffffffffffffffffffffffffffffff1673ffffffffffffffffffffffffffffffffffffffff16815260200190815260200160002060009054906101000a900460ff1615610c98576040517f08c379a0000000000000000000000000000000000000000000000000000000008152600401610c8f90612444565b60405180910390fd5b60003385604051602001610cad92919061213f565b60405160208183030381529060405280519060200120604051602001610cd39190612485565b604051602081830303815290604052805190602001209050610d3b848480806020026020016040519081016040528093929190818152602001838360200280828437600081840152601f19601f8201169050808301925050505050505083600301548361195b565b610d7a576040517f08c379a0000000000000000000000000000000000000000000000000000000008152600401610d71906124ec565b60405180910390fd5b60016003600088815260200190815260200160002060003373ffffffffffffffffffffffffffffffffffffffff1673ffffffffffffffffffffffffffffffffffffffff16815260200190815260200160002060006101000a81548160ff02191690831515021790555084600460008881526020019081526020016000206000828254610e06919061250c565b925050819055507f000000000000000000000000000000000000000000000000000000000000000073ffffffffffffffffffffffffffffffffffffffff1663a9059cbb33876040518363ffffffff1660e01b8152600401610e6892919061213f565b6020604051808303816000875af1158015610e87573d6000803e3d6000fd5b505050506040513d601f19601f82011682018060405250810190610eab9190612194565b610eea576040517f08c379a0000000000000000000000000000000000000000000000000000000008152600401610ee19061258c565b60405180910390fd5b3373ffffffffffffffffffffffffffffffffffffffff16867f24b5efa61dd1cfc659205a97fb8ed868f3cb8c81922bab2b96423e5de1de2cb787604051610f319190611b9e565b60405180910390a3505050505050565b6000600260008381526020019081526020016000209050600073ffffffffffffffffffffffffffffffffffffffff168160000160009054906101000a900473ffffffffffffffffffffffffffffffffffffffff1673ffffffffffffffffffffffffffffffffffffffff1603610feb576040517f08c379a0000000000000000000000000000000000000000000000000000000008152600401610fe290611f0c565b60405180910390fd5b8060000160009054906101000a900473ffffffffffffffffffffffffffffffffffffffff1673ffffffffffffffffffffffffffffffffffffffff163373ffffffffffffffffffffffffffffffffffffffff161461107d576040517f08c379a000000000000000000000000000000000000000000000000000000000815260040161107490611f78565b60405180910390fd5b8060040160009054906101000a900460ff16156110cf576040517f08c379a00000000000000000000000000000000000000000000000000000000081526004016110c6906125f8565b60405180910390fd5b6000801b816003015414611118576040517f08c379a000000000000000000000000000000000000000000000000000000000815260040161110f90612664565b60405180910390fd5b60018160040160006101000a81548160ff021916908315150217905550600081600101549050600082600101819055507f000000000000000000000000000000000000000000000000000000000000000073ffffffffffffffffffffffffffffffffffffffff1663a9059cbb8360000160009054906101000a900473ffffffffffffffffffffffffffffffffffffffff16836040518363ffffffff1660e01b81526004016111c792919061213f565b6020604051808303816000875af11580156111e6573d6000803e3d6000fd5b505050506040513d601f19601f8201168201806040525081019061120a9190612194565b611249576040517f08c379a0000000000000000000000000000000000000000000000000000000008152600401611240906126d0565b60405180910390fd5b8160000160009054906101000a900473ffffffffffffffffffffffffffffffffffffffff1673ffffffffffffffffffffffffffffffffffffffff16837f640266cfde4a41fc601b241731e4ffcc68496adaf6e0275fe7a5b98c874a216c836040516112b49190611b9e565b60405180910390a3505050565b6000808411611305576040517f08c379a00000000000000000000000000000000000000000000000000000000081526004016112fc9061273c565b60405180910390fd5b428367ffffffffffffffff1611611351576040517f08c379a0000000000000000000000000000000000000000000000000000000008152600401611348906127a8565b60405180910390fd5b8267ffffffffffffffff168267ffffffffffffffff16116113a7576040517f08c379a000000000000000000000000000000000000000000000000000000000815260040161139e90612814565b60405180910390fd5b60006127106101f4866113ba9190612834565b6113c491906128a5565b9050600081866113d4919061209f565b90507f000000000000000000000000000000000000000000000000000000000000000073ffffffffffffffffffffffffffffffffffffffff166323b872dd3330896040518463ffffffff1660e01b8152600401611433939291906128d6565b6020604051808303816000875af1158015611452573d6000803e3d6000fd5b505050506040513d601f19601f820116820180604052508101906114769190612194565b6114b5576040517f08c379a00000000000000000000000000000000000000000000000000000000081526004016114ac90612959565b60405180910390fd5b60008211156115a3577f000000000000000000000000000000000000000000000000000000000000000073ffffffffffffffffffffffffffffffffffffffff1663a9059cbb611502610996565b846040518363ffffffff1660e01b815260040161152092919061213f565b6020604051808303816000875af115801561153f573d6000803e3d6000fd5b505050506040513d601f19601f820116820180604052508101906115639190612194565b6115a2576040517f08c379a0000000000000000000000000000000000000000000000000000000008152600401611599906129c5565b60405180910390fd5b5b6000600160008154809291906115b8906129e5565b9190505590506040518060c001604052803373ffffffffffffffffffffffffffffffffffffffff1681526020018381526020018767ffffffffffffffff1681526020018667ffffffffffffffff1681526020016000801b8152602001600015158152506002600083815260200190815260200160002060008201518160000160006101000a81548173ffffffffffffffffffffffffffffffffffffffff021916908373ffffffffffffffffffffffffffffffffffffffff1602179055506020820151816001015560408201518160020160006101000a81548167ffffffffffffffff021916908367ffffffffffffffff16021790555060608201518160020160086101000a81548167ffffffffffffffff021916908367ffffffffffffffff1602179055506080820151816003015560a08201518160040160006101000a81548160ff0219169083151502179055509050503373ffffffffffffffffffffffffffffffffffffffff16817fb04e98939dfc63d0e32a4dba06c63dc9c53406348219aee9990b4697e9c2983884868a8a6040516117579493929190612a2d565b60405180910390a38093505050509392505050565b60046020528060005260406000206000915090505481565b61178c611810565b600073ffffffffffffffffffffffffffffffffffffffff168173ffffffffffffffffffffffffffffffffffffffff16036117fe5760006040517f1e4fbdf70000000000000000000000000000000000000000000000000000000081526004016117f59190611c7c565b60405180910390fd5b61180781611897565b50565b60015481565b611818611972565b73ffffffffffffffffffffffffffffffffffffffff16611836610996565b73ffffffffffffffffffffffffffffffffffffffff161461189557611859611972565b6040517f118cdaa700000000000000000000000000000000000000000000000000000000815260040161188c9190611c7c565b60405180910390fd5b565b60008060009054906101000a900473ffffffffffffffffffffffffffffffffffffffff169050816000806101000a81548173ffffffffffffffffffffffffffffffffffffffff021916908373ffffffffffffffffffffffffffffffffffffffff1602179055508173ffffffffffffffffffffffffffffffffffffffff168173ffffffffffffffffffffffffffffffffffffffff167f8be0079c531659141344cd1fd0a4f28419497f9722a3daafe3b4186f6b6457e060405160405180910390a35050565b600082611968858461197a565b1490509392505050565b600033905090565b60008082905060005b84518110156119c5576119b0828683815181106119a3576119a2612a72565b5b60200260200101516119d0565b915080806119bd906129e5565b915050611983565b508091505092915050565b60008183106119e8576119e382846119fb565b6119f3565b6119f283836119fb565b5b905092915050565b600082600052816020526040600020905092915050565b600080fd5b600080fd5b6000819050919050565b611a2f81611a1c565b8114611a3a57600080fd5b50565b600081359050611a4c81611a26565b92915050565b600060208284031215611a6857611a67611a12565b5b6000611a7684828501611a3d565b91505092915050565b600073ffffffffffffffffffffffffffffffffffffffff82169050919050565b6000819050919050565b6000611ac4611abf611aba84611a7f565b611a9f565b611a7f565b9050919050565b6000611ad682611aa9565b9050919050565b6000611ae882611acb565b9050919050565b611af881611add565b82525050565b6000602082019050611b136000830184611aef565b92915050565b6000819050919050565b611b2c81611b19565b8114611b3757600080fd5b50565b600081359050611b4981611b23565b92915050565b60008060408385031215611b6657611b65611a12565b5b6000611b7485828601611a3d565b9250506020611b8585828601611b3a565b9150509250929050565b611b9881611a1c565b82525050565b6000602082019050611bb36000830184611b8f565b92915050565b6000611bc482611a7f565b9050919050565b611bd481611bb9565b8114611bdf57600080fd5b50565b600081359050611bf181611bcb565b92915050565b60008060408385031215611c0e57611c0d611a12565b5b6000611c1c85828601611a3d565b9250506020611c2d85828601611be2565b9150509250929050565b60008115159050919050565b611c4c81611c37565b82525050565b6000602082019050611c676000830184611c43565b92915050565b611c7681611bb9565b82525050565b6000602082019050611c916000830184611c6d565b92915050565b600067ffffffffffffffff82169050919050565b611cb481611c97565b82525050565b611cc381611b19565b82525050565b600060c082019050611cde6000830189611c6d565b611ceb6020830188611b8f565b611cf86040830187611cab565b611d056060830186611cab565b611d126080830185611cba565b611d1f60a0830184611c43565b979650505050505050565b600080fd5b600080fd5b600080fd5b60008083601f840112611d4f57611d4e611d2a565b5b8235905067ffffffffffffffff811115611d6c57611d6b611d2f565b5b602083019150836020820283011115611d8857611d87611d34565b5b9250929050565b60008060008060608587031215611da957611da8611a12565b5b6000611db787828801611a3d565b9450506020611dc887828801611a3d565b935050604085013567ffffffffffffffff811115611de957611de8611a17565b5b611df587828801611d39565b925092505092959194509250565b611e0c81611c97565b8114611e1757600080fd5b50565b600081359050611e2981611e03565b92915050565b600080600060608486031215611e4857611e47611a12565b5b6000611e5686828701611a3d565b9350506020611e6786828701611e1a565b9250506040611e7886828701611e1a565b9150509250925092565b600060208284031215611e9857611e97611a12565b5b6000611ea684828501611be2565b91505092915050565b600082825260208201905092915050565b7f4368616c6c656e676520646f6573206e6f742065786973740000000000000000600082015250565b6000611ef6601883611eaf565b9150611f0182611ec0565b602082019050919050565b60006020820190508181036000830152611f2581611ee9565b9050919050565b7f4e6f742063726561746f72000000000000000000000000000000000000000000600082015250565b6000611f62600b83611eaf565b9150611f6d82611f2c565b602082019050919050565b60006020820190508181036000830152611f9181611f55565b9050919050565b7f4368616c6c656e67652063616e63656c6c656400000000000000000000000000600082015250565b6000611fce601383611eaf565b9150611fd982611f98565b602082019050919050565b60006020820190508181036000830152611ffd81611fc1565b9050919050565b7f436c61696d20646561646c696e65206e6f742070617373656400000000000000600082015250565b600061203a601983611eaf565b915061204582612004565b602082019050919050565b600060208201905081810360008301526120698161202d565b9050919050565b7f4e487b7100000000000000000000000000000000000000000000000000000000600052601160045260246000fd5b60006120aa82611a1c565b91506120b583611a1c565b92508282039050818111156120cd576120cc612070565b5b92915050565b7f4e6f7468696e6720746f207265636c61696d0000000000000000000000000000600082015250565b6000612109601283611eaf565b9150612114826120d3565b602082019050919050565b60006020820190508181036000830152612138816120fc565b9050919050565b60006040820190506121546000830185611c6d565b6121616020830184611b8f565b9392505050565b61217181611c37565b811461217c57600080fd5b50565b60008151905061218e81612168565b92915050565b6000602082840312156121aa576121a9611a12565b5b60006121b88482850161217f565b91505092915050565b7f5265636c61696d207472616e73666572206661696c6564000000000000000000600082015250565b60006121f7601783611eaf565b9150612202826121c1565b602082019050919050565b60006020820190508181036000830152612226816121ea565b9050919050565b7f4e6f7420617574686f72697a6564000000000000000000000000000000000000600082015250565b6000612263600e83611eaf565b915061226e8261222d565b602082019050919050565b6000602082019050818103600083015261229281612256565b9050919050565b7f4368616c6c656e6765206e6f7420656e64656400000000000000000000000000600082015250565b60006122cf601383611eaf565b91506122da82612299565b602082019050919050565b600060208201905081810360008301526122fe816122c2565b9050919050565b600060208201905061231a6000830184611cba565b92915050565b7f4d65726b6c6520726f6f74206e6f742073657400000000000000000000000000600082015250565b6000612356601383611eaf565b915061236182612320565b602082019050919050565b6000602082019050818103600083015261238581612349565b9050919050565b7f436c61696d20646561646c696e65207061737365640000000000000000000000600082015250565b60006123c2601583611eaf565b91506123cd8261238c565b602082019050919050565b600060208201905081810360008301526123f1816123b5565b9050919050565b7f416c726561647920636c61696d65640000000000000000000000000000000000600082015250565b600061242e600f83611eaf565b9150612439826123f8565b602082019050919050565b6000602082019050818103600083015261245d81612421565b9050919050565b6000819050919050565b61247f61247a82611b19565b612464565b82525050565b6000612491828461246e565b60208201915081905092915050565b7f496e76616c69642070726f6f6600000000000000000000000000000000000000600082015250565b60006124d6600d83611eaf565b91506124e1826124a0565b602082019050919050565b60006020820190508181036000830152612505816124c9565b9050919050565b600061251782611a1c565b915061252283611a1c565b925082820190508082111561253a57612539612070565b5b92915050565b7f526577617264207472616e73666572206661696c656400000000000000000000600082015250565b6000612576601683611eaf565b915061258182612540565b602082019050919050565b600060208201905081810360008301526125a581612569565b9050919050565b7f416c72656164792063616e63656c6c6564000000000000000000000000000000600082015250565b60006125e2601183611eaf565b91506125ed826125ac565b602082019050919050565b60006020820190508181036000830152612611816125d5565b9050919050565b7f416c72656164792066696e616c697a6564000000000000000000000000000000600082015250565b600061264e601183611eaf565b915061265982612618565b602082019050919050565b6000602082019050818103600083015261267d81612641565b9050919050565b7f526566756e64207472616e73666572206661696c656400000000000000000000600082015250565b60006126ba601683611eaf565b91506126c582612684565b602082019050919050565b600060208201905081810360008301526126e9816126ad565b9050919050565b7f5072697a6520706f6f6c206d757374206265203e203000000000000000000000600082015250565b6000612726601683611eaf565b9150612731826126f0565b602082019050919050565b6000602082019050818103600083015261275581612719565b9050919050565b7f456e64206d75737420626520696e206675747572650000000000000000000000600082015250565b6000612792601583611eaf565b915061279d8261275c565b602082019050919050565b600060208201905081810360008301526127c181612785565b9050919050565b7f436c61696d20646561646c696e65206d75737420626520616674657220656e64600082015250565b60006127fe602083611eaf565b9150612809826127c8565b602082019050919050565b6000602082019050818103600083015261282d816127f1565b9050919050565b600061283f82611a1c565b915061284a83611a1c565b925082820261285881611a1c565b9150828204841483151761286f5761286e612070565b5b5092915050565b7f4e487b7100000000000000000000000000000000000000000000000000000000600052601260045260246000fd5b60006128b082611a1c565b91506128bb83611a1c565b9250826128cb576128ca612876565b5b828204905092915050565b60006060820190506128eb6000830186611c6d565b6128f86020830185611c6d565b6129056040830184611b8f565b949350505050565b7f55534443207472616e73666572206661696c6564000000000000000000000000600082015250565b6000612943601483611eaf565b915061294e8261290d565b602082019050919050565b6000602082019050818103600083015261297281612936565b9050919050565b7f466565207472616e73666572206661696c656400000000000000000000000000600082015250565b60006129af601383611eaf565b91506129ba82612979565b602082019050919050565b600060208201905081810360008301526129de816129a2565b9050919050565b60006129f082611a1c565b91507fffffffffffffffffffffffffffffffffffffffffffffffffffffffffffffffff8203612a2257612a21612070565b5b600182019050919050565b6000608082019050612a426000830187611b8f565b612a4f6020830186611b8f565b612a5c6040830185611cab565b612a696060830184611cab565b95945050505050565b7f4e487b7100000000000000000000000000000000000000000000000000000000600052603260045260246000fdfea264697066735822122095725f6cc14a5c56028a49592093dabc1a138ebf1edaf73c80d4f94a88f0beb064736f6c63430008140033",
  "linkReferences": {},
  "deployedLinkReferences": {}
}