{
  "_format": "hh-sol-artifact-1",
  "contractName": "BurnFatTreasury",
  "sourceName": "contracts/BurnFatTreasury.sol",
  "abi": [
    {
      "inputs": [
        {
          "internalType": "address",
          "name": "_usdcToken",
          "type": "address"
        },
        {
          "internalType": "address",
          "name": "_operationsWallet",
          "type": "address"
        }
      ],
      "stateMutability": "nonpayable",
      "type": "constructor"
    },
    {
      "inputs": [
        {
          "internalType": "address",
          "name": "owner",
          "type": "address"
        }
      ],
      "name": "OwnableInvalidOwner",
      "type": "error"
    },
    {
      "inputs": [
        {
          "internalType": "address",
          "name": "account",
          "type": "address"
        }
      ],
      "name": "OwnableUnauthorizedAccount",
      "type": "error"
    },
    {
      "anonymous": false,
      "inputs": [
        {
          "indexed": true,
          "internalType": "address",
          "name": "user",
          "type": "address"
        },
        {
          "indexed": false,
          "internalType": "uint256",
          "name": "kgAmount",
          "type": "uint256"
        },
        {
          "indexed": false,
          "internalType": "uint256",
          "name": "usdcAmount",
          "type": "uint256"
        },
        {
          "indexed": false,
          "internalType": "bool",
          "name": "isRetrospective",
          "type": "bool"
        }
      ],
      "name": "BurnSubmitted",
      "type": "event"
    },
    {
      "anonymous": false,
      "inputs": [
        {
          "indexed": true,
          "internalType": "address",
          "name": "oldWallet",
          "type": "address"
        },
        {
          "indexed": true,
          "internalType": "address",
          "name": "newWallet",
          "type": "address"
        }
      ],
      "name": "OperationsWalletUpdated",
      "type": "event"
    },
    {
      "anonymous": false,
      "inputs": [
        {
          "indexed": true,
          "internalType": "address",
          "name": "previousOwner",
          "type": "address"
        },
        {
          "indexed": true,
          "internalType": "address",
          "name": "newOwner",
          "type": "address"
        }
      ],
      "name": "OwnershipTransferred",
      "type": "event"
    },
    {
      "anonymous": false,
      "inputs": [
        {
          "indexed": true,
          "internalType": "address",
          "name": "referrer",
          "type": "address"
        },
        {
          "indexed": true,
          "internalType": "address",
          "name": "user",
          "type": "address"
        },
        {
          "indexed": false,
          "internalType": "uint256",
          "name": "amount",
          "type": "uint256"
        }
      ],
      "name": "ReferralPaid",
      "type": "event"
    },
    {
      "anonymous": false,
      "inputs": [
        {
          "indexed": true,
          "internalType": "address",
          "name": "to",
          "type": "address"
        },
        {
          "indexed": false,
          "internalType": "uint256",
          "name": "amount",
          "type": "uint256"
        }
      ],
      "name": "ReservePoolWithdrawn",
      "type": "event"
    },
    {
      "inputs": [],
      "name": "PRICE_PER_KG",
      "outputs": [
        {
          "internalType": "uint256",
          "name": "",
          "type": "uint256"
        }
      ],
      "stateMutability": "view",
      "type": "function"
    },
    {
      "inputs": [],
      "name": "RETROSPECTIVE_PRICE_PER_KG",
      "outputs": [
        {
          "internalType": "uint256",
          "name": "",
          "type": "uint256"
        }
      ],
      "stateMutability": "view",
      "type": "function"
    },
    {
      "inputs": [
        {
          "internalType": "address",
          "name": "",
          "type": "address"
        }
      ],
      "name": "hasUsedRetrospective",
      "outputs": [
        {
          "internalType": "bool",
          "name": "",
          "type": "bool"
        }
      ],
      "stateMutability": "view",
      "type": "function"
    },
    {
      "inputs": [],
      "name": "operationsWallet",
      "outputs": [
        {
          "internalType": "address",
          "name": "",
          "type": "address"
        }
      ],
      "stateMutability": "view",
      "type": "function"
    },
    {
      "inputs": [],
      "name": "owner",
      "outputs": [
        {
          "internalType": "address",
          "name": "",
          "type": "address"
        }
      ],
      "stateMutability": "view",
      "type": "function"
    },
    {
      "inputs": [],
      "name": "renounceOwnership",
      "outputs": [],
      "stateMutability": "nonpayable",
      "type": "function"
    },
    {
      "inputs": [],
      "name": "reservePool",
      "outputs": [
        {
          "internalType": "uint256",
          "name": "",
          "type": "uint256"
        }
      ],
      "stateMutability": "view",
      "type": "function"
    },
    {
      "inputs": [
        {
          "internalType": "address",
          "name": "_newWallet",
          "type": "address"
        }
      ],
      "name": "setOperationsWallet",
      "outputs": [],
      "stateMutability": "nonpayable",
      "type": "function"
    },
    {
      "inputs": [
        {
          "internalType": "uint256",
          "name": "kgAmount",
          "type": "uint256"
        },
        {
          "internalType": "bool",
          "name": "isRetrospective",
          "type": "bool"
        },
        {
          "internalType": "address",
          "name": "referrer",
          "type": "address"
        }
      ],
      "name": "submitBurn",
      "outputs": [],
      "stateMutability": "nonpayable",
      "type": "function"
    },
    {
      "inputs": [
        {
          "internalType": "address",
          "name": "newOwner",
          "type": "address"
        }
      ],
      "name": "transferOwnership",
      "outputs": [],
      "stateMutability": "nonpayable",
      "type": "function"
    },
    {
      "inputs": [],
      "name": "usdcToken",
      "outputs": [
        {
          "internalType": "contract IERC20",
          "name": "",
          "type": "address"
        }
      ],
      "stateMutability": "view",
      "type": "function"
    },
    {
      "inputs": [
        {
          "internalType": "address",
          "name": "to",
          "type": "address"
        },
        {
          "internalType": "uint256",
          "name": "amount",
          "type": "uint256"
        }
      ],
      "name": "withdrawReservePool",
      "outputs": [],
      "stateMutability": "nonpayable",
      "type": "function"
    }
  ],
  "bytecode": "0x60a06040523480156200001157600080fd5b5060405162001c3238038062001c3283398181016040528101906200003791906200034e565b33600073ffffffffffffffffffffffffffffffffffffffff168173ffffffffffffffffffffffffffffffffffffffff1603620000ad5760006040517f1e4fbdf7000000000000000000000000000000000000000000000000000000008152600401620000a49190620003a6565b60405180910390fd5b620000be816200022060201b60201c565b50600073ffffffffffffffffffffffffffffffffffffffff168273ffffffffffffffffffffffffffffffffffffffff160362000131576040517f08c379a0000000000000000000000000000000000000000000000000000000008152600401620001289062000424565b60405180910390fd5b600073ffffffffffffffffffffffffffffffffffffffff168173ffffffffffffffffffffffffffffffffffffffff1603620001a3576040517f08c379a00000000000000000000000000000000000000000000000000000000081526004016200019a9062000496565b60405180910390fd5b8173ffffffffffffffffffffffffffffffffffffffff1660808173ffffffffffffffffffffffffffffffffffffffff168152505080600160006101000a81548173ffffffffffffffffffffffffffffffffffffffff021916908373ffffffffffffffffffffffffffffffffffffffff1602179055505050620004b8565b60008060009054906101000a900473ffffffffffffffffffffffffffffffffffffffff169050816000806101000a81548173ffffffffffffffffffffffffffffffffffffffff021916908373ffffffffffffffffffffffffffffffffffffffff1602179055508173ffffffffffffffffffffffffffffffffffffffff168173ffffffffffffffffffffffffffffffffffffffff167f8be0079c531659141344cd1fd0a4f28419497f9722a3daafe3b4186f6b6457e060405160405180910390a35050565b600080fd5b600073ffffffffffffffffffffffffffffffffffffffff82169050919050565b60006200031682620002e9565b9050919050565b620003288162000309565b81146200033457600080fd5b50565b60008151905062000348816200031d565b92915050565b60008060408385031215620003685762000367620002e4565b5b6000620003788582860162000337565b92505060206200038b8582860162000337565b9150509250929050565b620003a08162000309565b82525050565b6000602082019050620003bd600083018462000395565b92915050565b600082825260208201905092915050565b7f496e76616c696420555344432061646472657373000000000000000000000000600082015250565b60006200040c601483620003c3565b91506200041982620003d4565b602082019050919050565b600060208201905081810360008301526200043f81620003fd565b9050919050565b7f496e76616c6964206f70732077616c6c65740000000000000000000000000000600082015250565b60006200047e601283620003c3565b91506200048b8262000446565b602082019050919050565b60006020820190508181036000830152620004b1816200046f565b9050919050565b60805161173b620004f76000396000818161037501528181610496015281816106030152818161074a015281816108c00152610a24015261173b6000f3fe608060405234801561001057600080fd5b50600436106100b45760003560e01c80638da5cb5b116100715780638da5cb5b146101575780639b20582d14610175578063ec50324a146101a5578063ee5ecc89146101c1578063f2fde38b146101dd578063fd72e22a146101f9576100b4565b80630266f044146100b95780630a2f2137146100d757806311eac855146100f357806341ce01151461011157806370605a761461012f578063715018a61461014d575b600080fd5b6100c1610217565b6040516100ce9190610ea6565b60405180910390f35b6100f160048036038101906100ec9190610f88565b61021d565b005b6100fb6108be565b604051610108919061103a565b60405180910390f35b6101196108e2565b6040516101269190610ea6565b60405180910390f35b6101376108e9565b6040516101449190610ea6565b60405180910390f35b6101556108f0565b005b61015f610904565b60405161016c9190611064565b60405180910390f35b61018f600480360381019061018a919061107f565b61092d565b60405161019c91906110bb565b60405180910390f35b6101bf60048036038101906101ba91906110d6565b61094d565b005b6101db60048036038101906101d6919061107f565b610b51565b005b6101f760048036038101906101f2919061107f565b610c8e565b005b610201610d14565b60405161020e9190611064565b60405180910390f35b60025481565b60008311610260576040517f08c379a000000000000000000000000000000000000000000000000000000000815260040161025790611173565b60405180910390fd5b811561034c57600360003373ffffffffffffffffffffffffffffffffffffffff1673ffffffffffffffffffffffffffffffffffffffff16815260200190815260200160002060009054906101000a900460ff16156102f3576040517f08c379a00000000000000000000000000000000000000000000000000000000081526004016102ea906111df565b60405180910390fd5b6001600360003373ffffffffffffffffffffffffffffffffffffffff1673ffffffffffffffffffffffffffffffffffffffff16815260200190815260200160002060006101000a81548160ff0219169083151502179055505b60008261035c57620f4240610361565b6207a1205b905060008185610371919061122e565b90507f000000000000000000000000000000000000000000000000000000000000000073ffffffffffffffffffffffffffffffffffffffff166323b872dd3330846040518463ffffffff1660e01b81526004016103d093929190611270565b6020604051808303816000875af11580156103ef573d6000803e3d6000fd5b505050506040513d601f19601f8201168201806040525081019061041391906112bc565b610452576040517f08c379a000000000000000000000000000000000000000000000000000000000815260040161044990611335565b60405180910390fd5b60006003826104619190611384565b90506000818361047191906113b5565b905060006002826104829190611384565b90506000818361049291906113b5565b90507f000000000000000000000000000000000000000000000000000000000000000073ffffffffffffffffffffffffffffffffffffffff1663a9059cbb600160009054906101000a900473ffffffffffffffffffffffffffffffffffffffff16866040518363ffffffff1660e01b81526004016105119291906113e9565b6020604051808303816000875af1158015610530573d6000803e3d6000fd5b505050506040513d601f19601f8201168201806040525081019061055491906112bc565b610593576040517f08c379a000000000000000000000000000000000000000000000000000000000815260040161058a9061145e565b60405180910390fd5b600073ffffffffffffffffffffffffffffffffffffffff168773ffffffffffffffffffffffffffffffffffffffff16141580156105fc57503373ffffffffffffffffffffffffffffffffffffffff168773ffffffffffffffffffffffffffffffffffffffff1614155b15610748577f000000000000000000000000000000000000000000000000000000000000000073ffffffffffffffffffffffffffffffffffffffff1663a9059cbb88846040518363ffffffff1660e01b815260040161065c9291906113e9565b6020604051808303816000875af115801561067b573d6000803e3d6000fd5b505050506040513d601f19601f8201168201806040525081019061069f91906112bc565b6106de576040517f08c379a00000000000000000000000000000000000000000000000000000000081526004016106d5906114ca565b60405180910390fd5b3373ffffffffffffffffffffffffffffffffffffffff168773ffffffffffffffffffffffffffffffffffffffff167f0a721ab4682ceb61c7e4d264ef879fc419a6d764b136e7d96ef54b2053c756738460405161073b9190610ea6565b60405180910390a3610848565b7f000000000000000000000000000000000000000000000000000000000000000073ffffffffffffffffffffffffffffffffffffffff1663a9059cbb600160009054906101000a900473ffffffffffffffffffffffffffffffffffffffff16846040518363ffffffff1660e01b81526004016107c59291906113e9565b6020604051808303816000875af11580156107e4573d6000803e3d6000fd5b505050506040513d601f19601f8201168201806040525081019061080891906112bc565b610847576040517f08c379a000000000000000000000000000000000000000000000000000000000815260040161083e90611536565b60405180910390fd5b5b806002600082825461085a9190611556565b925050819055503373ffffffffffffffffffffffffffffffffffffffff167f04bb8d79d4ddc933334ed5a48129403c5790126e0c5a5bb22ba117fce1e350b48a878b6040516108ab9392919061158a565b60405180910390a2505050505050505050565b7f000000000000000000000000000000000000000000000000000000000000000081565b6207a12081565b620f424081565b6108f8610d3a565b6109026000610dc1565b565b60008060009054906101000a900473ffffffffffffffffffffffffffffffffffffffff16905090565b60036020528060005260406000206000915054906101000a900460ff1681565b610955610d3a565b600073ffffffffffffffffffffffffffffffffffffffff168273ffffffffffffffffffffffffffffffffffffffff16036109c4576040517f08c379a00000000000000000000000000000000000000000000000000000000081526004016109bb9061160d565b60405180910390fd5b600254811115610a09576040517f08c379a0000000000000000000000000000000000000000000000000000000008152600401610a0090611679565b60405180910390fd5b8060026000828254610a1b91906113b5565b925050819055507f000000000000000000000000000000000000000000000000000000000000000073ffffffffffffffffffffffffffffffffffffffff1663a9059cbb83836040518363ffffffff1660e01b8152600401610a7d9291906113e9565b6020604051808303816000875af1158015610a9c573d6000803e3d6000fd5b505050506040513d601f19601f82011682018060405250810190610ac091906112bc565b610aff576040517f08c379a0000000000000000000000000000000000000000000000000000000008152600401610af6906116e5565b60405180910390fd5b8173ffffffffffffffffffffffffffffffffffffffff167f049bd51800a8db1d7d88564b721c42ca2f8c62563b551a9d328c2e7c2aae187182604051610b459190610ea6565b60405180910390a25050565b610b59610d3a565b600073ffffffffffffffffffffffffffffffffffffffff168173ffffffffffffffffffffffffffffffffffffffff1603610bc8576040517f08c379a0000000000000000000000000000000000000000000000000000000008152600401610bbf9061160d565b60405180910390fd5b6000600160009054906101000a900473ffffffffffffffffffffffffffffffffffffffff16905081600160006101000a81548173ffffffffffffffffffffffffffffffffffffffff021916908373ffffffffffffffffffffffffffffffffffffffff1602179055508173ffffffffffffffffffffffffffffffffffffffff168173ffffffffffffffffffffffffffffffffffffffff167f086aa05ff00214e2d0c7c02b8a46b2614ad955732e6b43aa8afca69ed1ad76f860405160405180910390a35050565b610c96610d3a565b600073ffffffffffffffffffffffffffffffffffffffff168173ffffffffffffffffffffffffffffffffffffffff1603610d085760006040517f1e4fbdf7000000000000000000000000000000000000000000000000000000008152600401610cff9190611064565b60405180910390fd5b610d1181610dc1565b50565b600160009054906101000a900473ffffffffffffffffffffffffffffffffffffffff1681565b610d42610e85565b73ffffffffffffffffffffffffffffffffffffffff16610d60610904565b73ffffffffffffffffffffffffffffffffffffffff1614610dbf57610d83610e85565b6040517f118cdaa7000000000000000000000000000000000000000000000000000000008152600401610db69190611064565b60405180910390fd5b565b60008060009054906101000a900473ffffffffffffffffffffffffffffffffffffffff169050816000806101000a81548173ffffffffffffffffffffffffffffffffffffffff021916908373ffffffffffffffffffffffffffffffffffffffff1602179055508173ffffffffffffffffffffffffffffffffffffffff168173ffffffffffffffffffffffffffffffffffffffff167f8be0079c531659141344cd1fd0a4f28419497f9722a3daafe3b4186f6b6457e060405160405180910390a35050565b600033905090565b6000819050919050565b610ea081610e8d565b82525050565b6000602082019050610ebb6000830184610e97565b92915050565b600080fd5b610ecf81610e8d565b8114610eda57600080fd5b50565b600081359050610eec81610ec6565b92915050565b60008115159050919050565b610f0781610ef2565b8114610f1257600080fd5b50565b600081359050610f2481610efe565b92915050565b600073ffffffffffffffffffffffffffffffffffffffff82169050919050565b6000610f5582610f2a565b9050919050565b610f6581610f4a565b8114610f7057600080fd5b50565b600081359050610f8281610f5c565b92915050565b600080600060608486031215610fa157610fa0610ec1565b5b6000610faf86828701610edd565b9350506020610fc086828701610f15565b9250506040610fd186828701610f73565b9150509250925092565b6000819050919050565b6000611000610ffb610ff684610f2a565b610fdb565b610f2a565b9050919050565b600061101282610fe5565b9050919050565b600061102482611007565b9050919050565b61103481611019565b82525050565b600060208201905061104f600083018461102b565b92915050565b61105e81610f4a565b82525050565b60006020820190506110796000830184611055565b92915050565b60006020828403121561109557611094610ec1565b5b60006110a384828501610f73565b91505092915050565b6110b581610ef2565b82525050565b60006020820190506110d060008301846110ac565b92915050565b600080604083850312156110ed576110ec610ec1565b5b60006110fb85828601610f73565b925050602061110c85828601610edd565b9150509250929050565b600082825260208201905092915050565b7f416d6f756e74206d757374206265203e20300000000000000000000000000000600082015250565b600061115d601283611116565b915061116882611127565b602082019050919050565b6000602082019050818103600083015261118c81611150565b9050919050565b7f526574726f737065637469766520616c72656164792075736564000000000000600082015250565b60006111c9601a83611116565b91506111d482611193565b602082019050919050565b600060208201905081810360008301526111f8816111bc565b9050919050565b7f4e487b7100000000000000000000000000000000000000000000000000000000600052601160045260246000fd5b600061123982610e8d565b915061124483610e8d565b925082820261125281610e8d565b91508282048414831517611269576112686111ff565b5b5092915050565b60006060820190506112856000830186611055565b6112926020830185611055565b61129f6040830184610e97565b949350505050565b6000815190506112b681610efe565b92915050565b6000602082840312156112d2576112d1610ec1565b5b60006112e0848285016112a7565b91505092915050565b7f55534443207472616e73666572206661696c6564000000000000000000000000600082015250565b600061131f601483611116565b915061132a826112e9565b602082019050919050565b6000602082019050818103600083015261134e81611312565b9050919050565b7f4e487b7100000000000000000000000000000000000000000000000000000000600052601260045260246000fd5b600061138f82610e8d565b915061139a83610e8d565b9250826113aa576113a9611355565b5b828204905092915050565b60006113c082610e8d565b91506113cb83610e8d565b92508282039050818111156113e3576113e26111ff565b5b92915050565b60006040820190506113fe6000830185611055565b61140b6020830184610e97565b9392505050565b7f4f7073207472616e73666572206661696c656400000000000000000000000000600082015250565b6000611448601383611116565b915061145382611412565b602082019050919050565b600060208201905081810360008301526114778161143b565b9050919050565b7f526566657272616c207472616e73666572206661696c65640000000000000000600082015250565b60006114b4601883611116565b91506114bf8261147e565b602082019050919050565b600060208201905081810360008301526114e3816114a7565b9050919050565b7f4f707320726566657272616c207472616e73666572206661696c656400000000600082015250565b6000611520601c83611116565b915061152b826114ea565b602082019050919050565b6000602082019050818103600083015261154f81611513565b9050919050565b600061156182610e8d565b915061156c83610e8d565b9250828201905080821115611584576115836111ff565b5b92915050565b600060608201905061159f6000830186610e97565b6115ac6020830185610e97565b6115b960408301846110ac565b949350505050565b7f496e76616c696420616464726573730000000000000000000000000000000000600082015250565b60006115f7600f83611116565b9150611602826115c1565b602082019050919050565b60006020820190508181036000830152611626816115ea565b9050919050565b7f45786365656473207265736572766520706f6f6c000000000000000000000000600082015250565b6000611663601483611116565b915061166e8261162d565b602082019050919050565b6000602082019050818103600083015261169281611656565b9050919050565b7f5472616e73666572206661696c65640000000000000000000000000000000000600082015250565b60006116cf600f83611116565b91506116da82611699565b602082019050919050565b600060208201905081810360008301526116fe816116c2565b905091905056fea26469706673582212200c5d26f1f327a88bbac104f41425d6e321a846e3941f557e3966c250733004c164736f6c63430008140033",
  "linkReferences": {},
  "deployedLinkReferences": {}
}